{
  "_format": "hh-sol-artifact-1",
  "contractName": "BuyGb",
  "sourceName": "contracts/BuyGb.sol",
  "abi": [
    {
      "inputs": [
        {
          "internalType": "address payable",
          "name": "_to",
          "type": "address"
        }
      ],
      "name": "SendMony",
      "outputs": [],
      "stateMutability": "nonpayable",
      "type": "function"
    },
    {
      "inputs": [
        {
          "internalType": "int256",
          "name": "_day",
          "type": "int256"
        },
        {
          "internalType": "int256",
          "name": "_month",
          "type": "int256"
        },
        {
          "internalType": "int256",
          "name": "_year",
          "type": "int256"
        }
      ],
      "name": "buyGold",
      "outputs": [],
      "stateMutability": "payable",
      "type": "function"
    },
    {
      "inputs": [
        {
          "internalType": "int256",
          "name": "_day",
          "type": "int256"
        },
        {
          "internalType": "int256",
          "name": "_month",
          "type": "int256"
        },
        {
          "internalType": "int256",
          "name": "_year",
          "type": "int256"
        }
      ],
      "name": "buyPreminum",
      "outputs": [],
      "stateMutability": "payable",
      "type": "function"
    },
    {
      "inputs": [],
      "name": "currentRole",
      "outputs": [
        {
          "components": [
            {
              "internalType": "address",
              "name": "userAddress",
              "type": "address"
            },
            {
              "internalType": "string",
              "name": "role",
              "type": "string"
            },
            {
              "internalType": "int256",
              "name": "day",
              "type": "int256"
            },
            {
              "internalType": "int256",
              "name": "month",
              "type": "int256"
            },
            {
              "internalType": "int256",
              "name": "year",
              "type": "int256"
            }
          ],
          "internalType": "struct BuyGb.UserRole[]",
          "name": "",
          "type": "tuple[]"
        }
      ],
      "stateMutability": "view",
      "type": "function"
    },
    {
      "inputs": [
        {
          "internalType": "uint256",
          "name": "",
          "type": "uint256"
        }
      ],
      "name": "userRoles",
      "outputs": [
        {
          "internalType": "address",
          "name": "userAddress",
          "type": "address"
        },
        {
          "internalType": "string",
          "name": "role",
          "type": "string"
        },
        {
          "internalType": "int256",
          "name": "day",
          "type": "int256"
        },
        {
          "internalType": "int256",
          "name": "month",
          "type": "int256"
        },
        {
          "internalType": "int256",
          "name": "year",
          "type": "int256"
        }
      ],
      "stateMutability": "view",
      "type": "function"
    }
  ],
  "bytecode": "0x608060405234801561001057600080fd5b50610c63806100206000396000f3fe60806040526004361061004a5760003560e01c80631ebe4c821461004f578063488df4a81461007a5780637e11f42e14610096578063acbd75a7146100b2578063e6fa39d6146100f3575b600080fd5b34801561005b57600080fd5b5061006461011c565b6040516100719190610a5e565b60405180910390f35b610094600480360381019061008f91906107d7565b610281565b005b6100b060048036038101906100ab91906107d7565b6103e6565b005b3480156100be57600080fd5b506100d960048036038101906100d4919061082a565b61054b565b6040516100ea959493929190610a04565b60405180910390f35b3480156100ff57600080fd5b5061011a600480360381019061011591906107aa565b610639565b005b60606000805480602002602001604051908101604052809291908181526020016000905b8282101561027857838290600052602060002090600502016040518060a00160405290816000820160009054906101000a900473ffffffffffffffffffffffffffffffffffffffff1673ffffffffffffffffffffffffffffffffffffffff1673ffffffffffffffffffffffffffffffffffffffff1681526020016001820180546101c990610b71565b80601f01602080910402602001604051908101604052809291908181526020018280546101f590610b71565b80156102425780601f1061021757610100808354040283529160200191610242565b820191906000526020600020905b81548152906001019060200180831161022557829003601f168201915b50505050508152602001600282015481526020016003820154815260200160048201548152505081526020019060010190610140565b50505050905090565b6611c37937e08000341461029457600080fd5b61029c610683565b33816000019073ffffffffffffffffffffffffffffffffffffffff16908173ffffffffffffffffffffffffffffffffffffffff16815250506040518060400160405280600881526020017f7072656d696e756d0000000000000000000000000000000000000000000000008152508160200181905250838160400181815250508281606001818152505081816080018181525050600081908060018154018082558091505060019003906000526020600020906005020160009091909190915060008201518160000160006101000a81548173ffffffffffffffffffffffffffffffffffffffff021916908373ffffffffffffffffffffffffffffffffffffffff16021790555060208201518160010190805190602001906103bf9291906106c8565b50604082015181600201556060820151816003015560808201518160040155505050505050565b660aa87bee53800034146103f957600080fd5b610401610683565b33816000019073ffffffffffffffffffffffffffffffffffffffff16908173ffffffffffffffffffffffffffffffffffffffff16815250506040518060400160405280600481526020017f676f6c64000000000000000000000000000000000000000000000000000000008152508160200181905250838160400181815250508281606001818152505081816080018181525050600081908060018154018082558091505060019003906000526020600020906005020160009091909190915060008201518160000160006101000a81548173ffffffffffffffffffffffffffffffffffffffff021916908373ffffffffffffffffffffffffffffffffffffffff16021790555060208201518160010190805190602001906105249291906106c8565b50604082015181600201556060820151816003015560808201518160040155505050505050565b6000818154811061055b57600080fd5b90600052602060002090600502016000915090508060000160009054906101000a900473ffffffffffffffffffffffffffffffffffffffff16908060010180546105a490610b71565b80601f01602080910402602001604051908101604052809291908181526020018280546105d090610b71565b801561061d5780601f106105f25761010080835404028352916020019161061d565b820191906000526020600020905b81548152906001019060200180831161060057829003601f168201915b5050505050908060020154908060030154908060040154905085565b8073ffffffffffffffffffffffffffffffffffffffff166108fc479081150290604051600060405180830381858888f1935050505015801561067f573d6000803e3d6000fd5b5050565b6040518060a00160405280600073ffffffffffffffffffffffffffffffffffffffff168152602001606081526020016000815260200160008152602001600081525090565b8280546106d490610b71565b90600052602060002090601f0160209004810192826106f6576000855561073d565b82601f1061070f57805160ff191683800117855561073d565b8280016001018555821561073d579182015b8281111561073c578251825591602001919060010190610721565b5b50905061074a919061074e565b5090565b5b8082111561076757600081600090555060010161074f565b5090565b60008135905061077a81610be8565b92915050565b60008135905061078f81610bff565b92915050565b6000813590506107a481610c16565b92915050565b6000602082840312156107c0576107bf610bd2565b5b60006107ce8482850161076b565b91505092915050565b6000806000606084860312156107f0576107ef610bd2565b5b60006107fe86828701610780565b935050602061080f86828701610780565b925050604061082086828701610780565b9150509250925092565b6000602082840312156108405761083f610bd2565b5b600061084e84828501610795565b91505092915050565b6000610863838361098e565b905092915050565b61087481610ae6565b82525050565b61088381610ae6565b82525050565b600061089482610a90565b61089e8185610ab3565b9350836020820285016108b085610a80565b8060005b858110156108ec57848403895281516108cd8582610857565b94506108d883610aa6565b925060208a019950506001810190506108b4565b50829750879550505050505092915050565b61090781610b0a565b82525050565b61091681610b0a565b82525050565b600061092782610a9b565b6109318185610ac4565b9350610941818560208601610b3e565b61094a81610bd7565b840191505092915050565b600061096082610a9b565b61096a8185610ad5565b935061097a818560208601610b3e565b61098381610bd7565b840191505092915050565b600060a0830160008301516109a6600086018261086b565b50602083015184820360208601526109be828261091c565b91505060408301516109d360408601826108fe565b5060608301516109e660608601826108fe565b5060808301516109f960808601826108fe565b508091505092915050565b600060a082019050610a19600083018861087a565b8181036020830152610a2b8187610955565b9050610a3a604083018661090d565b610a47606083018561090d565b610a54608083018461090d565b9695505050505050565b60006020820190508181036000830152610a788184610889565b905092915050565b6000819050602082019050919050565b600081519050919050565b600081519050919050565b6000602082019050919050565b600082825260208201905092915050565b600082825260208201905092915050565b600082825260208201905092915050565b6000610af182610b14565b9050919050565b6000610b0382610b14565b9050919050565b6000819050919050565b600073ffffffffffffffffffffffffffffffffffffffff82169050919050565b6000819050919050565b60005b83811015610b5c578082015181840152602081019050610b41565b83811115610b6b576000848401525b50505050565b60006002820490506001821680610b8957607f821691505b60208210811415610b9d57610b9c610ba3565b5b50919050565b7f4e487b7100000000000000000000000000000000000000000000000000000000600052602260045260246000fd5b600080fd5b6000601f19601f8301169050919050565b610bf181610af8565b8114610bfc57600080fd5b50565b610c0881610b0a565b8114610c1357600080fd5b50565b610c1f81610b34565b8114610c2a57600080fd5b5056fea26469706673582212203222cb6ab076a6034284bffec757fbfd46f3862d0a8c7f3e1a71473653c3526964736f6c63430008070033",
  "linkReferences": {},
  "deployedLinkReferences": {}
}