{
  "_format": "hh-sol-artifact-1",
  "contractName": "SendFile",
  "sourceName": "contracts/SendFile.sol",
  "abi": [
    {
      "inputs": [
        {
          "internalType": "string",
          "name": "_FileName",
          "type": "string"
        },
        {
          "internalType": "string",
          "name": "_FileLink",
          "type": "string"
        },
        {
          "internalType": "string",
          "name": "_FileSize",
          "type": "string"
        }
      ],
      "name": "createFiles",
      "outputs": [],
      "stateMutability": "nonpayable",
      "type": "function"
    },
    {
      "inputs": [
        {
          "internalType": "address",
          "name": "_UserAddress",
          "type": "address"
        },
        {
          "internalType": "uint256",
          "name": "index",
          "type": "uint256"
        }
      ],
      "name": "deleteFile",
      "outputs": [],
      "stateMutability": "nonpayable",
      "type": "function"
    },
    {
      "inputs": [
        {
          "internalType": "uint256",
          "name": "",
          "type": "uint256"
        }
      ],
      "name": "files",
      "outputs": [
        {
          "internalType": "address",
          "name": "userAddress",
          "type": "address"
        },
        {
          "internalType": "string",
          "name": "fileSize",
          "type": "string"
        },
        {
          "internalType": "uint256",
          "name": "fileCount",
          "type": "uint256"
        },
        {
          "internalType": "string",
          "name": "fileName",
          "type": "string"
        },
        {
          "internalType": "string",
          "name": "fileLink",
          "type": "string"
        }
      ],
      "stateMutability": "view",
      "type": "function"
    },
    {
      "inputs": [],
      "name": "getFiles",
      "outputs": [
        {
          "components": [
            {
              "internalType": "address",
              "name": "userAddress",
              "type": "address"
            },
            {
              "internalType": "string",
              "name": "fileSize",
              "type": "string"
            },
            {
              "internalType": "uint256",
              "name": "fileCount",
              "type": "uint256"
            },
            {
              "internalType": "string",
              "name": "fileName",
              "type": "string"
            },
            {
              "internalType": "string",
              "name": "fileLink",
              "type": "string"
            }
          ],
          "internalType": "struct SendFile.File[]",
          "name": "",
          "type": "tuple[]"
        }
      ],
      "stateMutability": "view",
      "type": "function"
    }
  ],
  "bytecode": "0x608060405234801561001057600080fd5b506111b5806100206000396000f3fe608060405234801561001057600080fd5b506004361061004c5760003560e01c80632da96d7314610051578063c52f80dd1461006f578063f2f15be11461008b578063f4c714b4146100a7575b600080fd5b6100596100db565b6040516100669190610e4e565b60405180910390f35b61008960048036038101906100849190610b17565b610350565b005b6100a560048036038101906100a09190610b57565b610584565b005b6100c160048036038101906100bc9190610bfe565b6106ca565b6040516100d2959493929190610de6565b60405180910390f35b60606000805480602002602001604051908101604052809291908181526020016000905b8282101561034757838290600052602060002090600502016040518060a00160405290816000820160009054906101000a900473ffffffffffffffffffffffffffffffffffffffff1673ffffffffffffffffffffffffffffffffffffffff1673ffffffffffffffffffffffffffffffffffffffff16815260200160018201805461018890610fde565b80601f01602080910402602001604051908101604052809291908181526020018280546101b490610fde565b80156102015780601f106101d657610100808354040283529160200191610201565b820191906000526020600020905b8154815290600101906020018083116101e457829003601f168201915b505050505081526020016002820154815260200160038201805461022490610fde565b80601f016020809104026020016040519081016040528092919081815260200182805461025090610fde565b801561029d5780601f106102725761010080835404028352916020019161029d565b820191906000526020600020905b81548152906001019060200180831161028057829003601f168201915b505050505081526020016004820180546102b690610fde565b80601f01602080910402602001604051908101604052809291908181526020018280546102e290610fde565b801561032f5780601f106103045761010080835404028352916020019161032f565b820191906000526020600020905b81548152906001019060200180831161031257829003601f168201915b505050505081525050815260200190600101906100ff565b50505050905090565b8173ffffffffffffffffffffffffffffffffffffffff166000828154811061037b5761037a6110ce565b5b906000526020600020906005020160000160009054906101000a900473ffffffffffffffffffffffffffffffffffffffff1673ffffffffffffffffffffffffffffffffffffffff16146103cd57600080fd5b600060016000805490506103e19190610f2c565b815481106103f2576103f16110ce565b5b906000526020600020906005020160008281548110610414576104136110ce565b5b90600052602060002090600502016000820160009054906101000a900473ffffffffffffffffffffffffffffffffffffffff168160000160006101000a81548173ffffffffffffffffffffffffffffffffffffffff021916908373ffffffffffffffffffffffffffffffffffffffff160217905550600182018160010190805461049d90610fde565b6104a89291906108c8565b506002820154816002015560038201816003019080546104c790610fde565b6104d29291906108c8565b5060048201816004019080546104e790610fde565b6104f29291906108c8565b5090505060008054806105085761050761109f565b5b6001900381819060005260206000209060050201600080820160006101000a81549073ffffffffffffffffffffffffffffffffffffffff02191690556001820160006105549190610955565b600282016000905560038201600061056c9190610955565b60048201600061057c9190610955565b505090555050565b61058c610995565b33816000019073ffffffffffffffffffffffffffffffffffffffff16908173ffffffffffffffffffffffffffffffffffffffff1681525050838160600181905250828160800181905250600080549050816040018181525050818160200181905250600081908060018154018082558091505060019003906000526020600020906005020160009091909190915060008201518160000160006101000a81548173ffffffffffffffffffffffffffffffffffffffff021916908373ffffffffffffffffffffffffffffffffffffffff160217905550602082015181600101908051906020019061067d9291906109da565b506040820151816002015560608201518160030190805190602001906106a49291906109da565b5060808201518160040190805190602001906106c19291906109da565b50505050505050565b600081815481106106da57600080fd5b90600052602060002090600502016000915090508060000160009054906101000a900473ffffffffffffffffffffffffffffffffffffffff169080600101805461072390610fde565b80601f016020809104026020016040519081016040528092919081815260200182805461074f90610fde565b801561079c5780601f106107715761010080835404028352916020019161079c565b820191906000526020600020905b81548152906001019060200180831161077f57829003601f168201915b5050505050908060020154908060030180546107b790610fde565b80601f01602080910402602001604051908101604052809291908181526020018280546107e390610fde565b80156108305780601f1061080557610100808354040283529160200191610830565b820191906000526020600020905b81548152906001019060200180831161081357829003601f168201915b50505050509080600401805461084590610fde565b80601f016020809104026020016040519081016040528092919081815260200182805461087190610fde565b80156108be5780601f10610893576101008083540402835291602001916108be565b820191906000526020600020905b8154815290600101906020018083116108a157829003601f168201915b5050505050905085565b8280546108d490610fde565b90600052602060002090601f0160209004810192826108f65760008555610944565b82601f106109075780548555610944565b8280016001018555821561094457600052602060002091601f016020900482015b82811115610943578254825591600101919060010190610928565b5b5090506109519190610a60565b5090565b50805461096190610fde565b6000825580601f106109735750610992565b601f0160209004906000526020600020908101906109919190610a60565b5b50565b6040518060a00160405280600073ffffffffffffffffffffffffffffffffffffffff168152602001606081526020016000815260200160608152602001606081525090565b8280546109e690610fde565b90600052602060002090601f016020900481019282610a085760008555610a4f565b82601f10610a2157805160ff1916838001178555610a4f565b82800160010185558215610a4f579182015b82811115610a4e578251825591602001919060010190610a33565b5b509050610a5c9190610a60565b5090565b5b80821115610a79576000816000905550600101610a61565b5090565b6000610a90610a8b84610e95565b610e70565b905082815260208101848484011115610aac57610aab611131565b5b610ab7848285610f9c565b509392505050565b600081359050610ace81611151565b92915050565b600082601f830112610ae957610ae861112c565b5b8135610af9848260208601610a7d565b91505092915050565b600081359050610b1181611168565b92915050565b60008060408385031215610b2e57610b2d61113b565b5b6000610b3c85828601610abf565b9250506020610b4d85828601610b02565b9150509250929050565b600080600060608486031215610b7057610b6f61113b565b5b600084013567ffffffffffffffff811115610b8e57610b8d611136565b5b610b9a86828701610ad4565b935050602084013567ffffffffffffffff811115610bbb57610bba611136565b5b610bc786828701610ad4565b925050604084013567ffffffffffffffff811115610be857610be7611136565b5b610bf486828701610ad4565b9150509250925092565b600060208284031215610c1457610c1361113b565b5b6000610c2284828501610b02565b91505092915050565b6000610c378383610d44565b905092915050565b610c4881610f60565b82525050565b610c5781610f60565b82525050565b6000610c6882610ed6565b610c728185610ef9565b935083602082028501610c8485610ec6565b8060005b85811015610cc05784840389528151610ca18582610c2b565b9450610cac83610eec565b925060208a01995050600181019050610c88565b50829750879550505050505092915050565b6000610cdd82610ee1565b610ce78185610f0a565b9350610cf7818560208601610fab565b610d0081611140565b840191505092915050565b6000610d1682610ee1565b610d208185610f1b565b9350610d30818560208601610fab565b610d3981611140565b840191505092915050565b600060a083016000830151610d5c6000860182610c3f565b5060208301518482036020860152610d748282610cd2565b9150506040830151610d896040860182610dc8565b5060608301518482036060860152610da18282610cd2565b91505060808301518482036080860152610dbb8282610cd2565b9150508091505092915050565b610dd181610f92565b82525050565b610de081610f92565b82525050565b600060a082019050610dfb6000830188610c4e565b8181036020830152610e0d8187610d0b565b9050610e1c6040830186610dd7565b8181036060830152610e2e8185610d0b565b90508181036080830152610e428184610d0b565b90509695505050505050565b60006020820190508181036000830152610e688184610c5d565b905092915050565b6000610e7a610e8b565b9050610e868282611010565b919050565b6000604051905090565b600067ffffffffffffffff821115610eb057610eaf6110fd565b5b610eb982611140565b9050602081019050919050565b6000819050602082019050919050565b600081519050919050565b600081519050919050565b6000602082019050919050565b600082825260208201905092915050565b600082825260208201905092915050565b600082825260208201905092915050565b6000610f3782610f92565b9150610f4283610f92565b925082821015610f5557610f54611041565b5b828203905092915050565b6000610f6b82610f72565b9050919050565b600073ffffffffffffffffffffffffffffffffffffffff82169050919050565b6000819050919050565b82818337600083830152505050565b60005b83811015610fc9578082015181840152602081019050610fae565b83811115610fd8576000848401525b50505050565b60006002820490506001821680610ff657607f821691505b6020821081141561100a57611009611070565b5b50919050565b61101982611140565b810181811067ffffffffffffffff82111715611038576110376110fd565b5b80604052505050565b7f4e487b7100000000000000000000000000000000000000000000000000000000600052601160045260246000fd5b7f4e487b7100000000000000000000000000000000000000000000000000000000600052602260045260246000fd5b7f4e487b7100000000000000000000000000000000000000000000000000000000600052603160045260246000fd5b7f4e487b7100000000000000000000000000000000000000000000000000000000600052603260045260246000fd5b7f4e487b7100000000000000000000000000000000000000000000000000000000600052604160045260246000fd5b600080fd5b600080fd5b600080fd5b600080fd5b6000601f19601f8301169050919050565b61115a81610f60565b811461116557600080fd5b50565b61117181610f92565b811461117c57600080fd5b5056fea2646970667358221220ca6102740db94b0be13813252fe98f8a17f76df04d3d1a595d27a27e1be2a65e64736f6c63430008070033",
  "linkReferences": {},
  "deployedLinkReferences": {}
}